{
  "contractName": "Splitter",
  "abi": [
    {
      "constant": true,
      "inputs": [
        {
          "name": "",
          "type": "address"
        }
      ],
      "name": "balances",
      "outputs": [
        {
          "name": "",
          "type": "uint256"
        }
      ],
      "payable": false,
      "stateMutability": "view",
      "type": "function"
    },
    {
      "constant": true,
      "inputs": [],
      "name": "owner",
      "outputs": [
        {
          "name": "",
          "type": "address"
        }
      ],
      "payable": false,
      "stateMutability": "view",
      "type": "function"
    },
    {
      "inputs": [],
      "payable": false,
      "stateMutability": "nonpayable",
      "type": "constructor"
    },
    {
      "payable": true,
      "stateMutability": "payable",
      "type": "fallback"
    },
    {
      "anonymous": false,
      "inputs": [
        {
          "indexed": false,
          "name": "depostitor",
          "type": "address"
        },
        {
          "indexed": false,
          "name": "out1",
          "type": "address"
        },
        {
          "indexed": false,
          "name": "out2",
          "type": "address"
        },
        {
          "indexed": false,
          "name": "amount",
          "type": "uint256"
        }
      ],
      "name": "log_split",
      "type": "event"
    },
    {
      "constant": false,
      "inputs": [
        {
          "name": "out1",
          "type": "address"
        },
        {
          "name": "out2",
          "type": "address"
        }
      ],
      "name": "mockingSplit",
      "outputs": [
        {
          "name": "success",
          "type": "bool"
        }
      ],
      "payable": true,
      "stateMutability": "payable",
      "type": "function"
    },
    {
      "constant": false,
      "inputs": [
        {
          "name": "out1",
          "type": "address"
        },
        {
          "name": "out2",
          "type": "address"
        }
      ],
      "name": "realSplit",
      "outputs": [
        {
          "name": "success",
          "type": "bool"
        }
      ],
      "payable": true,
      "stateMutability": "payable",
      "type": "function"
    },
    {
      "constant": false,
      "inputs": [
        {
          "name": "addr",
          "type": "address"
        }
      ],
      "name": "checkBalanceOf",
      "outputs": [
        {
          "name": "",
          "type": "uint256"
        }
      ],
      "payable": false,
      "stateMutability": "nonpayable",
      "type": "function"
    },
    {
      "constant": false,
      "inputs": [],
      "name": "checkContractBalance",
      "outputs": [
        {
          "name": "",
          "type": "uint256"
        }
      ],
      "payable": false,
      "stateMutability": "nonpayable",
      "type": "function"
    },
    {
      "constant": false,
      "inputs": [],
      "name": "killTheContract",
      "outputs": [],
      "payable": false,
      "stateMutability": "nonpayable",
      "type": "function"
    }
  ],
  "bytecode": "0x6060604052341561000f57600080fd5b3373ffffffffffffffffffffffffffffffffffffffff166000809054906101000a90505050610992806100436000396000f300606060405260043610610083576000357c0100000000000000000000000000000000000000000000000000000000900463ffffffff16806303147f391461008557806315634659146100d257806327e235e31461013757806350312c9e1461018457806367f8b2f5146101ad5780637e49098a146102125780638da5cb5b14610227575b005b341561009057600080fd5b6100bc600480803573ffffffffffffffffffffffffffffffffffffffff1690602001909190505061027c565b6040518082815260200191505060405180910390f35b61011d600480803573ffffffffffffffffffffffffffffffffffffffff1690602001909190803573ffffffffffffffffffffffffffffffffffffffff1690602001909190505061029d565b604051808215151515815260200191505060405180910390f35b341561014257600080fd5b61016e600480803573ffffffffffffffffffffffffffffffffffffffff16906020019091905050610576565b6040518082815260200191505060405180910390f35b341561018f57600080fd5b61019761058e565b6040518082815260200191505060405180910390f35b6101f8600480803573ffffffffffffffffffffffffffffffffffffffff1690602001909190803573ffffffffffffffffffffffffffffffffffffffff169060200190919050506105ad565b604051808215151515815260200191505060405180910390f35b341561021d57600080fd5b6102256108ac565b005b341561023257600080fd5b61023a610941565b604051808273ffffffffffffffffffffffffffffffffffffffff1673ffffffffffffffffffffffffffffffffffffffff16815260200191505060405180910390f35b60008173ffffffffffffffffffffffffffffffffffffffff16319050919050565b600080341115156102ad57600080fd5b60008373ffffffffffffffffffffffffffffffffffffffff16141515156102d357600080fd5b60008273ffffffffffffffffffffffffffffffffffffffff16141515156102f957600080fd5b8273ffffffffffffffffffffffffffffffffffffffff163373ffffffffffffffffffffffffffffffffffffffff161415151561033457600080fd5b8173ffffffffffffffffffffffffffffffffffffffff163373ffffffffffffffffffffffffffffffffffffffff161415151561036f57600080fd5b8173ffffffffffffffffffffffffffffffffffffffff168373ffffffffffffffffffffffffffffffffffffffff16141515156103aa57600080fd5b60016002348115156103b857fe5b061415610401573373ffffffffffffffffffffffffffffffffffffffff166108fc60019081150290604051600060405180830381858888f19350505050151561040057600080fd5b5b8273ffffffffffffffffffffffffffffffffffffffff166108fc60023481151561042757fe5b049081150290604051600060405180830381858888f19350505050151561044d57600080fd5b8173ffffffffffffffffffffffffffffffffffffffff166108fc60023481151561047357fe5b049081150290604051600060405180830381858888f19350505050151561049957600080fd5b7f0f2d2b6ba423e969d64c14ffb8962d1b7336ad476539387ba3861e7bf28ada7f33848434604051808573ffffffffffffffffffffffffffffffffffffffff1673ffffffffffffffffffffffffffffffffffffffff1681526020018473ffffffffffffffffffffffffffffffffffffffff1673ffffffffffffffffffffffffffffffffffffffff1681526020018373ffffffffffffffffffffffffffffffffffffffff1673ffffffffffffffffffffffffffffffffffffffff16815260200182815260200194505050505060405180910390a16001905092915050565b60016020528060005260406000206000915090505481565b60003073ffffffffffffffffffffffffffffffffffffffff1631905090565b600080341115156105bd57600080fd5b60008373ffffffffffffffffffffffffffffffffffffffff16141515156105e357600080fd5b60008273ffffffffffffffffffffffffffffffffffffffff161415151561060957600080fd5b8273ffffffffffffffffffffffffffffffffffffffff163373ffffffffffffffffffffffffffffffffffffffff161415151561064457600080fd5b8173ffffffffffffffffffffffffffffffffffffffff163373ffffffffffffffffffffffffffffffffffffffff161415151561067f57600080fd5b8173ffffffffffffffffffffffffffffffffffffffff168373ffffffffffffffffffffffffffffffffffffffff16141515156106ba57600080fd5b60016002348115156106c857fe5b06141561071d5760018060003373ffffffffffffffffffffffffffffffffffffffff1673ffffffffffffffffffffffffffffffffffffffff168152602001908152602001600020600082825401925050819055505b60023481151561072957fe5b04600160008573ffffffffffffffffffffffffffffffffffffffff1673ffffffffffffffffffffffffffffffffffffffff1681526020019081526020016000206000828254019250508190555060023481151561078257fe5b04600160008473ffffffffffffffffffffffffffffffffffffffff1673ffffffffffffffffffffffffffffffffffffffff168152602001908152602001600020600082825401925050819055507f0f2d2b6ba423e969d64c14ffb8962d1b7336ad476539387ba3861e7bf28ada7f33848434604051808573ffffffffffffffffffffffffffffffffffffffff1673ffffffffffffffffffffffffffffffffffffffff1681526020018473ffffffffffffffffffffffffffffffffffffffff1673ffffffffffffffffffffffffffffffffffffffff1681526020018373ffffffffffffffffffffffffffffffffffffffff1673ffffffffffffffffffffffffffffffffffffffff16815260200182815260200194505050505060405180910390a16001905092915050565b6000809054906101000a900473ffffffffffffffffffffffffffffffffffffffff1673ffffffffffffffffffffffffffffffffffffffff163373ffffffffffffffffffffffffffffffffffffffff1614151561090757600080fd5b6000809054906101000a900473ffffffffffffffffffffffffffffffffffffffff1673ffffffffffffffffffffffffffffffffffffffff16ff5b6000809054906101000a900473ffffffffffffffffffffffffffffffffffffffff16815600a165627a7a72305820029786d8cf9cb0573526a2a972e8e89546b90a61a679b050162525bb112b03670029",
  "source": "pragma solidity ^0.4.0;\n\ncontract Splitter {\n    address public owner;\n    mapping (address => uint) public balances;\n\n\n    event log_split(address depostitor, address out1, address out2, uint amount);\n\n    modifier onlyOwner() {\n        require (msg.sender == owner);\n        _;\n    }\n\n    function () payable { }\n\n    function Splitter () {\n        owner == msg.sender;\n    }\n\n    function mockingSplit(address out1, address out2) payable returns (bool success) {\n        // mocking of transfers in balances mapping\n        require(msg.value > 0);\n        require(out1 != 0);\n        require(out2 != 0);\n        require(msg.sender != out1);\n        require(msg.sender != out2);\n        require(out1 != out2);\n\n        if (msg.value % 2 == 1) {\n            balances[msg.sender] += 1;\n        }\n\n        balances[out1] += msg.value / 2;\n        balances[out2] += msg.value / 2;\n\n        log_split(msg.sender, out1, out2, msg.value);\n\n        return true;\n    }\n\n    function realSplit(address out1, address out2) payable returns (bool success) {\n        // real transfers on the network\n        require(msg.value > 0);\n        require(out1 != 0);\n        require(out2 != 0);\n        require(msg.sender != out1);\n        require(msg.sender != out2);\n        require(out1 != out2);\n\n        if (msg.value % 2 == 1) {\n            msg.sender.transfer(1);\n        }\n\n        out1.transfer(msg.value / 2);\n        out2.transfer(msg.value / 2);\n\n        log_split(msg.sender, out1, out2, msg.value);\n\n        return true;\n    }\n\n    function checkBalanceOf(address addr) returns (uint) {\n        return addr.balance;\n    }\n\n    function checkContractBalance() returns (uint) {\n        return this.balance;\n    }\n\n    function killTheContract() onlyOwner {\n        suicide(owner);\n    }\n}\n",
  "sourcePath": "/home/gogo/Documents/Repos/Solidity/splitter/contracts/Splitter.sol",
  "compiler": {
    "name": "solc",
    "version": "0.4.19+commit.c4cbbb05.Emscripten.clang"
  },
  "schemaVersion": "2.0.0",
  "updatedAt": "2018-03-31T06:15:52.806Z"
}