{
  "contractName": "Splitter",
  "abi": [
    {
      "constant": true,
      "inputs": [],
      "name": "owner",
      "outputs": [
        {
          "name": "",
          "type": "address"
        }
      ],
      "payable": false,
      "stateMutability": "view",
      "type": "function"
    },
    {
      "inputs": [],
      "payable": false,
      "stateMutability": "nonpayable",
      "type": "constructor"
    },
    {
      "payable": true,
      "stateMutability": "payable",
      "type": "fallback"
    },
    {
      "anonymous": false,
      "inputs": [
        {
          "indexed": false,
          "name": "depostitor",
          "type": "address"
        },
        {
          "indexed": false,
          "name": "out1",
          "type": "address"
        },
        {
          "indexed": false,
          "name": "out2",
          "type": "address"
        },
        {
          "indexed": false,
          "name": "amount",
          "type": "uint256"
        }
      ],
      "name": "LogSplit",
      "type": "event"
    },
    {
      "anonymous": false,
      "inputs": [
        {
          "indexed": false,
          "name": "sender",
          "type": "address"
        },
        {
          "indexed": false,
          "name": "amount",
          "type": "uint256"
        }
      ],
      "name": "LogSelfDestruct",
      "type": "event"
    },
    {
      "constant": false,
      "inputs": [
        {
          "name": "out1",
          "type": "address"
        },
        {
          "name": "out2",
          "type": "address"
        }
      ],
      "name": "split",
      "outputs": [
        {
          "name": "success",
          "type": "bool"
        }
      ],
      "payable": true,
      "stateMutability": "payable",
      "type": "function"
    },
    {
      "constant": true,
      "inputs": [
        {
          "name": "addr",
          "type": "address"
        }
      ],
      "name": "checkBalanceOf",
      "outputs": [
        {
          "name": "",
          "type": "uint256"
        }
      ],
      "payable": false,
      "stateMutability": "view",
      "type": "function"
    },
    {
      "constant": true,
      "inputs": [],
      "name": "checkContractBalance",
      "outputs": [
        {
          "name": "",
          "type": "uint256"
        }
      ],
      "payable": false,
      "stateMutability": "view",
      "type": "function"
    },
    {
      "constant": false,
      "inputs": [],
      "name": "killTheContract",
      "outputs": [],
      "payable": false,
      "stateMutability": "nonpayable",
      "type": "function"
    }
  ],
  "bytecode": "0x6060604052341561000f57600080fd5b336000806101000a81548173ffffffffffffffffffffffffffffffffffffffff021916908373ffffffffffffffffffffffffffffffffffffffff1602179055506106358061005e6000396000f30060606040526004361061006d576000357c0100000000000000000000000000000000000000000000000000000000900463ffffffff16806303147f391461006f5780630f2c9329146100bc57806350312c9e146101215780637e49098a1461014a5780638da5cb5b1461015f575b005b341561007a57600080fd5b6100a6600480803573ffffffffffffffffffffffffffffffffffffffff169060200190919050506101b4565b6040518082815260200191505060405180910390f35b610107600480803573ffffffffffffffffffffffffffffffffffffffff1690602001909190803573ffffffffffffffffffffffffffffffffffffffff169060200190919050506101d5565b604051808215151515815260200191505060405180910390f35b341561012c57600080fd5b6101346104ae565b6040518082815260200191505060405180910390f35b341561015557600080fd5b61015d6104cd565b005b341561016a57600080fd5b6101726105e4565b604051808273ffffffffffffffffffffffffffffffffffffffff1673ffffffffffffffffffffffffffffffffffffffff16815260200191505060405180910390f35b60008173ffffffffffffffffffffffffffffffffffffffff16319050919050565b600080341115156101e557600080fd5b60008373ffffffffffffffffffffffffffffffffffffffff161415151561020b57600080fd5b60008273ffffffffffffffffffffffffffffffffffffffff161415151561023157600080fd5b8273ffffffffffffffffffffffffffffffffffffffff163373ffffffffffffffffffffffffffffffffffffffff161415151561026c57600080fd5b8173ffffffffffffffffffffffffffffffffffffffff163373ffffffffffffffffffffffffffffffffffffffff16141515156102a757600080fd5b8173ffffffffffffffffffffffffffffffffffffffff168373ffffffffffffffffffffffffffffffffffffffff16141515156102e257600080fd5b60016002348115156102f057fe5b061415610339573373ffffffffffffffffffffffffffffffffffffffff166108fc60019081150290604051600060405180830381858888f19350505050151561033857600080fd5b5b8273ffffffffffffffffffffffffffffffffffffffff166108fc60023481151561035f57fe5b049081150290604051600060405180830381858888f19350505050151561038557600080fd5b8173ffffffffffffffffffffffffffffffffffffffff166108fc6002348115156103ab57fe5b049081150290604051600060405180830381858888f1935050505015156103d157600080fd5b7f5861cc23de8cab7630160dc0ee2c1e9aa2a0f1498f73c387807c0100e6684da733848434604051808573ffffffffffffffffffffffffffffffffffffffff1673ffffffffffffffffffffffffffffffffffffffff1681526020018473ffffffffffffffffffffffffffffffffffffffff1673ffffffffffffffffffffffffffffffffffffffff1681526020018373ffffffffffffffffffffffffffffffffffffffff1673ffffffffffffffffffffffffffffffffffffffff16815260200182815260200194505050505060405180910390a16001905092915050565b60003073ffffffffffffffffffffffffffffffffffffffff1631905090565b6000809054906101000a900473ffffffffffffffffffffffffffffffffffffffff1673ffffffffffffffffffffffffffffffffffffffff163373ffffffffffffffffffffffffffffffffffffffff1614151561052857600080fd5b7f215be423a2afeeee1f3f4d3cc730708809a96e17103a81f16896c0722bd20635333073ffffffffffffffffffffffffffffffffffffffff1631604051808373ffffffffffffffffffffffffffffffffffffffff1673ffffffffffffffffffffffffffffffffffffffff1681526020018281526020019250505060405180910390a16000809054906101000a900473ffffffffffffffffffffffffffffffffffffffff1673ffffffffffffffffffffffffffffffffffffffff16ff5b6000809054906101000a900473ffffffffffffffffffffffffffffffffffffffff16815600a165627a7a723058203efd980f0847a62cbd57f194add445a2cf9f0c018fe0f6197fa9ae671748d7120029",
  "source": "pragma solidity ^0.4.21;\n\ncontract Splitter {\n    // address public owner;\n    address public owner;\n\n    event LogSplit(address depostitor, address out1, address out2, uint amount);\n    event LogSelfDestruct(address sender, uint amount);\n\n    modifier onlyOwner() {\n        require(msg.sender == owner);\n        _;\n    }\n\n    function Splitter () public {\n        owner = msg.sender;\n    }\n\n    function () public payable { }\n\n    function split(address out1, address out2) public payable returns (bool success) {\n        // real transfers on the network\n        require(msg.value > 0);\n        require(out1 != 0);\n        require(out2 != 0);\n        require(msg.sender != out1);\n        require(msg.sender != out2);\n        require(out1 != out2);\n\n        if (msg.value % 2 == 1) {\n            msg.sender.transfer(1);\n        }\n\n        out1.transfer(msg.value / 2);\n        out2.transfer(msg.value / 2);\n\n        emit LogSplit(msg.sender, out1, out2, msg.value);\n\n        return true;\n    }\n\n    function checkBalanceOf(address addr) public view returns (uint) {\n        return addr.balance;\n    }\n\n    function checkContractBalance() public view returns (uint) {\n        return address(this).balance;\n    }\n\n    function killTheContract() onlyOwner public {\n        emit LogSelfDestruct(msg.sender, address(this).balance);\n        selfdestruct(owner);\n    }\n}\n",
  "sourcePath": "/home/gogo/Documents/Repos/Solidity/splitter/contracts/Splitter.sol",
  "compiler": {
    "name": "solc",
    "version": "0.4.21+commit.dfe3193c.Emscripten.clang"
  },
  "schemaVersion": "2.0.0",
  "updatedAt": "2018-04-17T06:26:18.224Z"
}