{
  "contractName": "Splitter",
  "abi": [
    {
      "constant": true,
      "inputs": [],
      "name": "owner",
      "outputs": [
        {
          "name": "",
          "type": "address"
        }
      ],
      "payable": false,
      "stateMutability": "view",
      "type": "function"
    },
    {
      "inputs": [],
      "payable": false,
      "stateMutability": "nonpayable",
      "type": "constructor"
    },
    {
      "payable": true,
      "stateMutability": "payable",
      "type": "fallback"
    },
    {
      "anonymous": false,
      "inputs": [
        {
          "indexed": false,
          "name": "depostitor",
          "type": "address"
        },
        {
          "indexed": false,
          "name": "out1",
          "type": "address"
        },
        {
          "indexed": false,
          "name": "out2",
          "type": "address"
        },
        {
          "indexed": false,
          "name": "amount",
          "type": "uint256"
        }
      ],
      "name": "Split",
      "type": "event"
    },
    {
      "anonymous": false,
      "inputs": [
        {
          "indexed": false,
          "name": "sender",
          "type": "address"
        },
        {
          "indexed": false,
          "name": "amount",
          "type": "uint256"
        }
      ],
      "name": "LogSelfDestruct",
      "type": "event"
    },
    {
      "constant": false,
      "inputs": [
        {
          "name": "_recivingAddr1",
          "type": "address"
        },
        {
          "name": "_recivingAddr2",
          "type": "address"
        }
      ],
      "name": "split",
      "outputs": [
        {
          "name": "success",
          "type": "bool"
        }
      ],
      "payable": true,
      "stateMutability": "payable",
      "type": "function"
    },
    {
      "constant": true,
      "inputs": [
        {
          "name": "_addr",
          "type": "address"
        }
      ],
      "name": "checkBalanceOf",
      "outputs": [
        {
          "name": "",
          "type": "uint256"
        }
      ],
      "payable": false,
      "stateMutability": "view",
      "type": "function"
    },
    {
      "constant": true,
      "inputs": [],
      "name": "checkContractBalance",
      "outputs": [
        {
          "name": "",
          "type": "uint256"
        }
      ],
      "payable": false,
      "stateMutability": "view",
      "type": "function"
    },
    {
      "constant": false,
      "inputs": [],
      "name": "killTheContract",
      "outputs": [],
      "payable": false,
      "stateMutability": "nonpayable",
      "type": "function"
    }
  ],
  "bytecode": "0x6060604052341561000f57600080fd5b336000806101000a81548173ffffffffffffffffffffffffffffffffffffffff021916908373ffffffffffffffffffffffffffffffffffffffff1602179055506106668061005e6000396000f30060606040526004361061006d576000357c0100000000000000000000000000000000000000000000000000000000900463ffffffff16806303147f391461006f5780630f2c9329146100bc57806350312c9e146101215780637e49098a1461014a5780638da5cb5b1461015f575b005b341561007a57600080fd5b6100a6600480803573ffffffffffffffffffffffffffffffffffffffff169060200190919050506101b4565b6040518082815260200191505060405180910390f35b610107600480803573ffffffffffffffffffffffffffffffffffffffff1690602001909190803573ffffffffffffffffffffffffffffffffffffffff169060200190919050506101d5565b604051808215151515815260200191505060405180910390f35b341561012c57600080fd5b6101346104df565b6040518082815260200191505060405180910390f35b341561015557600080fd5b61015d6104fe565b005b341561016a57600080fd5b610172610615565b604051808273ffffffffffffffffffffffffffffffffffffffff1673ffffffffffffffffffffffffffffffffffffffff16815260200191505060405180910390f35b60008173ffffffffffffffffffffffffffffffffffffffff16319050919050565b600082600073ffffffffffffffffffffffffffffffffffffffff168173ffffffffffffffffffffffffffffffffffffffff161415151561021457600080fd5b82600073ffffffffffffffffffffffffffffffffffffffff168173ffffffffffffffffffffffffffffffffffffffff161415151561025157600080fd5b3385858173ffffffffffffffffffffffffffffffffffffffff168373ffffffffffffffffffffffffffffffffffffffff16141580156102bc57508073ffffffffffffffffffffffffffffffffffffffff168373ffffffffffffffffffffffffffffffffffffffff1614155b80156102f457508073ffffffffffffffffffffffffffffffffffffffff168273ffffffffffffffffffffffffffffffffffffffff1614155b15156102ff57600080fd5b60003411151561030e57600080fd5b600160023481151561031c57fe5b061415610365573373ffffffffffffffffffffffffffffffffffffffff166108fc60019081150290604051600060405180830381858888f19350505050151561036457600080fd5b5b8773ffffffffffffffffffffffffffffffffffffffff166108fc60023481151561038b57fe5b049081150290604051600060405180830381858888f1935050505015156103b157600080fd5b8673ffffffffffffffffffffffffffffffffffffffff166108fc6002348115156103d757fe5b049081150290604051600060405180830381858888f1935050505015156103fd57600080fd5b7f554f7219915544ac5e2241460735c44ea3ac3a1b71a0d74c6c470ec082f9ac8833898934604051808573ffffffffffffffffffffffffffffffffffffffff1673ffffffffffffffffffffffffffffffffffffffff1681526020018473ffffffffffffffffffffffffffffffffffffffff1673ffffffffffffffffffffffffffffffffffffffff1681526020018373ffffffffffffffffffffffffffffffffffffffff1673ffffffffffffffffffffffffffffffffffffffff16815260200182815260200194505050505060405180910390a160019550505050505092915050565b60003073ffffffffffffffffffffffffffffffffffffffff1631905090565b6000809054906101000a900473ffffffffffffffffffffffffffffffffffffffff1673ffffffffffffffffffffffffffffffffffffffff163373ffffffffffffffffffffffffffffffffffffffff1614151561055957600080fd5b7f215be423a2afeeee1f3f4d3cc730708809a96e17103a81f16896c0722bd20635333073ffffffffffffffffffffffffffffffffffffffff1631604051808373ffffffffffffffffffffffffffffffffffffffff1673ffffffffffffffffffffffffffffffffffffffff1681526020018281526020019250505060405180910390a16000809054906101000a900473ffffffffffffffffffffffffffffffffffffffff1673ffffffffffffffffffffffffffffffffffffffff16ff5b6000809054906101000a900473ffffffffffffffffffffffffffffffffffffffff16815600a165627a7a72305820a5e45c44bd8d28a917f7f1a11bf40b476547da01f783a31580deeb49ac48b9050029",
  "source": "pragma solidity ^0.4.21;\n\n\ncontract Splitter {\n    address public owner;\n\n    event Split(address depostitor, address out1, address out2, uint amount);\n    event LogSelfDestruct(address sender, uint amount);\n\n    modifier onlyOwner() {\n        require(msg.sender == owner);\n        _;\n    }\n\n    modifier checkForSameAddr(address _addr1, address _addr2, address _addr3) {\n        require(_addr1 != _addr2 &&\n                _addr1 != _addr3 &&\n                _addr2 != _addr3);\n        _;\n    }\n\n    modifier validAddress(address _addr) {\n        require(_addr != address(0));\n        _;\n    }\n\n    function Splitter () public {\n        owner = msg.sender;\n    }\n\n    function () public payable { }\n\n    function split(address _recivingAddr1, address _recivingAddr2)\n    validAddress(_recivingAddr1)\n    validAddress(_recivingAddr2)\n    checkForSameAddr(msg.sender, _recivingAddr1, _recivingAddr2)\n    public payable returns (bool success) {\n        require(msg.value > 0);\n        // require(_recivingAddr1 != address(0));\n        // require(_recivingAddr2 != address(0));\n        // require(msg.sender != _recivingAddr1);\n        // require(msg.sender != _recivingAddr2);\n        // require(_recivingAddr1 != _recivingAddr2);\n\n        if (msg.value % 2 == 1) {\n            msg.sender.transfer(1);\n        }\n\n        _recivingAddr1.transfer(msg.value / 2);\n        _recivingAddr2.transfer(msg.value / 2);\n\n        emit Split(msg.sender, _recivingAddr1, _recivingAddr2, msg.value);\n\n        return true;\n    }\n\n    function checkBalanceOf(address _addr) public view returns (uint) {\n        return _addr.balance;\n    }\n\n    function checkContractBalance() public view returns (uint) {\n        return address(this).balance;\n    }\n\n    function killTheContract() onlyOwner public {\n        emit LogSelfDestruct(msg.sender, address(this).balance);\n        selfdestruct(owner);\n    }\n}\n",
  "sourcePath": "/home/gogo/Documents/Repos/Solidity/splitter/contracts/Splitter.sol",
  "compiler": {
    "name": "solc",
    "version": "0.4.21+commit.dfe3193c.Emscripten.clang"
  },
  "schemaVersion": "2.0.0",
  "updatedAt": "2018-04-26T18:41:53.264Z"
}