{
  "contractName": "Splitter",
  "abi": [
    {
      "constant": true,
      "inputs": [
        {
          "name": "",
          "type": "address"
        }
      ],
      "name": "balances",
      "outputs": [
        {
          "name": "",
          "type": "uint256"
        }
      ],
      "payable": false,
      "stateMutability": "view",
      "type": "function"
    },
    {
      "constant": true,
      "inputs": [],
      "name": "owner",
      "outputs": [
        {
          "name": "",
          "type": "address"
        }
      ],
      "payable": false,
      "stateMutability": "view",
      "type": "function"
    },
    {
      "inputs": [],
      "payable": false,
      "stateMutability": "nonpayable",
      "type": "constructor"
    },
    {
      "payable": true,
      "stateMutability": "payable",
      "type": "fallback"
    },
    {
      "anonymous": false,
      "inputs": [
        {
          "indexed": false,
          "name": "depostitor",
          "type": "address"
        },
        {
          "indexed": false,
          "name": "out1",
          "type": "address"
        },
        {
          "indexed": false,
          "name": "out2",
          "type": "address"
        },
        {
          "indexed": false,
          "name": "amount",
          "type": "uint256"
        }
      ],
      "name": "log_split",
      "type": "event"
    },
    {
      "constant": false,
      "inputs": [
        {
          "name": "out1",
          "type": "address"
        },
        {
          "name": "out2",
          "type": "address"
        }
      ],
      "name": "mockingSplit",
      "outputs": [
        {
          "name": "success",
          "type": "bool"
        }
      ],
      "payable": true,
      "stateMutability": "payable",
      "type": "function"
    },
    {
      "constant": false,
      "inputs": [
        {
          "name": "out1",
          "type": "address"
        },
        {
          "name": "out2",
          "type": "address"
        }
      ],
      "name": "realSplit",
      "outputs": [
        {
          "name": "success",
          "type": "bool"
        }
      ],
      "payable": true,
      "stateMutability": "payable",
      "type": "function"
    },
    {
      "constant": false,
      "inputs": [
        {
          "name": "addr",
          "type": "address"
        }
      ],
      "name": "checkBalanceOf",
      "outputs": [
        {
          "name": "",
          "type": "uint256"
        }
      ],
      "payable": false,
      "stateMutability": "nonpayable",
      "type": "function"
    },
    {
      "constant": false,
      "inputs": [],
      "name": "checkContractBalance",
      "outputs": [
        {
          "name": "",
          "type": "uint256"
        }
      ],
      "payable": false,
      "stateMutability": "nonpayable",
      "type": "function"
    },
    {
      "constant": false,
      "inputs": [],
      "name": "killTheContract",
      "outputs": [],
      "payable": false,
      "stateMutability": "nonpayable",
      "type": "function"
    },
    {
      "constant": false,
      "inputs": [],
      "name": "forTesting",
      "outputs": [
        {
          "name": "",
          "type": "string"
        }
      ],
      "payable": false,
      "stateMutability": "nonpayable",
      "type": "function"
    }
  ],
  "bytecode": "0x6060604052341561000f57600080fd5b3373ffffffffffffffffffffffffffffffffffffffff166000809054906101000a90505050610a82806100436000396000f30060606040526004361061008e576000357c0100000000000000000000000000000000000000000000000000000000900463ffffffff16806303147f391461009057806315634659146100dd57806327e235e3146101425780632a4f370f1461018f57806350312c9e1461021d57806367f8b2f5146102465780637e49098a146102ab5780638da5cb5b146102c0575b005b341561009b57600080fd5b6100c7600480803573ffffffffffffffffffffffffffffffffffffffff16906020019091905050610315565b6040518082815260200191505060405180910390f35b610128600480803573ffffffffffffffffffffffffffffffffffffffff1690602001909190803573ffffffffffffffffffffffffffffffffffffffff16906020019091905050610336565b604051808215151515815260200191505060405180910390f35b341561014d57600080fd5b610179600480803573ffffffffffffffffffffffffffffffffffffffff1690602001909190505061060f565b6040518082815260200191505060405180910390f35b341561019a57600080fd5b6101a2610627565b6040518080602001828103825283818151815260200191508051906020019080838360005b838110156101e25780820151818401526020810190506101c7565b50505050905090810190601f16801561020f5780820380516001836020036101000a031916815260200191505b509250505060405180910390f35b341561022857600080fd5b61023061066a565b6040518082815260200191505060405180910390f35b610291600480803573ffffffffffffffffffffffffffffffffffffffff1690602001909190803573ffffffffffffffffffffffffffffffffffffffff16906020019091905050610689565b604051808215151515815260200191505060405180910390f35b34156102b657600080fd5b6102be610988565b005b34156102cb57600080fd5b6102d3610a1d565b604051808273ffffffffffffffffffffffffffffffffffffffff1673ffffffffffffffffffffffffffffffffffffffff16815260200191505060405180910390f35b60008173ffffffffffffffffffffffffffffffffffffffff16319050919050565b6000803411151561034657600080fd5b60008373ffffffffffffffffffffffffffffffffffffffff161415151561036c57600080fd5b60008273ffffffffffffffffffffffffffffffffffffffff161415151561039257600080fd5b8273ffffffffffffffffffffffffffffffffffffffff163373ffffffffffffffffffffffffffffffffffffffff16141515156103cd57600080fd5b8173ffffffffffffffffffffffffffffffffffffffff163373ffffffffffffffffffffffffffffffffffffffff161415151561040857600080fd5b8173ffffffffffffffffffffffffffffffffffffffff168373ffffffffffffffffffffffffffffffffffffffff161415151561044357600080fd5b600160023481151561045157fe5b06141561049a573373ffffffffffffffffffffffffffffffffffffffff166108fc60019081150290604051600060405180830381858888f19350505050151561049957600080fd5b5b8273ffffffffffffffffffffffffffffffffffffffff166108fc6002348115156104c057fe5b049081150290604051600060405180830381858888f1935050505015156104e657600080fd5b8173ffffffffffffffffffffffffffffffffffffffff166108fc60023481151561050c57fe5b049081150290604051600060405180830381858888f19350505050151561053257600080fd5b7f0f2d2b6ba423e969d64c14ffb8962d1b7336ad476539387ba3861e7bf28ada7f33848434604051808573ffffffffffffffffffffffffffffffffffffffff1673ffffffffffffffffffffffffffffffffffffffff1681526020018473ffffffffffffffffffffffffffffffffffffffff1673ffffffffffffffffffffffffffffffffffffffff1681526020018373ffffffffffffffffffffffffffffffffffffffff1673ffffffffffffffffffffffffffffffffffffffff16815260200182815260200194505050505060405180910390a16001905092915050565b60016020528060005260406000206000915090505481565b61062f610a42565b6040805190810160405280600481526020017f676f676f00000000000000000000000000000000000000000000000000000000815250905090565b60003073ffffffffffffffffffffffffffffffffffffffff1631905090565b6000803411151561069957600080fd5b60008373ffffffffffffffffffffffffffffffffffffffff16141515156106bf57600080fd5b60008273ffffffffffffffffffffffffffffffffffffffff16141515156106e557600080fd5b8273ffffffffffffffffffffffffffffffffffffffff163373ffffffffffffffffffffffffffffffffffffffff161415151561072057600080fd5b8173ffffffffffffffffffffffffffffffffffffffff163373ffffffffffffffffffffffffffffffffffffffff161415151561075b57600080fd5b8173ffffffffffffffffffffffffffffffffffffffff168373ffffffffffffffffffffffffffffffffffffffff161415151561079657600080fd5b60016002348115156107a457fe5b0614156107f95760018060003373ffffffffffffffffffffffffffffffffffffffff1673ffffffffffffffffffffffffffffffffffffffff168152602001908152602001600020600082825401925050819055505b60023481151561080557fe5b04600160008573ffffffffffffffffffffffffffffffffffffffff1673ffffffffffffffffffffffffffffffffffffffff1681526020019081526020016000206000828254019250508190555060023481151561085e57fe5b04600160008473ffffffffffffffffffffffffffffffffffffffff1673ffffffffffffffffffffffffffffffffffffffff168152602001908152602001600020600082825401925050819055507f0f2d2b6ba423e969d64c14ffb8962d1b7336ad476539387ba3861e7bf28ada7f33848434604051808573ffffffffffffffffffffffffffffffffffffffff1673ffffffffffffffffffffffffffffffffffffffff1681526020018473ffffffffffffffffffffffffffffffffffffffff1673ffffffffffffffffffffffffffffffffffffffff1681526020018373ffffffffffffffffffffffffffffffffffffffff1673ffffffffffffffffffffffffffffffffffffffff16815260200182815260200194505050505060405180910390a16001905092915050565b6000809054906101000a900473ffffffffffffffffffffffffffffffffffffffff1673ffffffffffffffffffffffffffffffffffffffff163373ffffffffffffffffffffffffffffffffffffffff161415156109e357600080fd5b6000809054906101000a900473ffffffffffffffffffffffffffffffffffffffff1673ffffffffffffffffffffffffffffffffffffffff16ff5b6000809054906101000a900473ffffffffffffffffffffffffffffffffffffffff1681565b6020604051908101604052806000815250905600a165627a7a72305820c44ea0b756e375fd9a9a6797c8aa4a503c43a13b581574482b9d3d15547630220029",
  "source": "pragma solidity ^0.4.0;\n\ncontract Splitter {\n    address public owner;\n    mapping (address => uint) public balances;\n\n\n    event log_split(address depostitor, address out1, address out2, uint amount);\n\n    modifier onlyOwner() {\n        require (msg.sender == owner);\n        _;\n    }\n\n    function () payable { }\n\n    function Splitter () {\n        owner == msg.sender;\n    }\n\n    function mockingSplit(address out1, address out2) payable returns (bool success) {\n        // mocking of transfers in balances mapping\n        require(msg.value > 0);\n        require(out1 != 0);\n        require(out2 != 0);\n        require(msg.sender != out1);\n        require(msg.sender != out2);\n        require(out1 != out2);\n\n        if (msg.value % 2 == 1) {\n            balances[msg.sender] += 1;\n        }\n\n        balances[out1] += msg.value / 2;\n        balances[out2] += msg.value / 2;\n\n        log_split(msg.sender, out1, out2, msg.value);\n\n        return true;\n    }\n\n    function realSplit(address out1, address out2) payable returns (bool success) {\n        // real transfers on the network\n        require(msg.value > 0);\n        require(out1 != 0);\n        require(out2 != 0);\n        require(msg.sender != out1);\n        require(msg.sender != out2);\n        require(out1 != out2);\n\n        if (msg.value % 2 == 1) {\n            msg.sender.transfer(1);\n        }\n\n        out1.transfer(msg.value / 2);\n        out2.transfer(msg.value / 2);\n\n        log_split(msg.sender, out1, out2, msg.value);\n\n        return true;\n    }\n\n    function checkBalanceOf(address addr) returns (uint) {\n        return addr.balance;\n    }\n\n    function checkContractBalance() returns (uint) {\n        return this.balance;\n    }\n\n    function killTheContract() onlyOwner {\n        suicide(owner);\n    }\n\n    function forTesting() returns (string) {\n        return 'gogo';\n    }\n}\n",
  "sourcePath": "/home/gogo/Documents/Repos/Solidity/splitter/contracts/Splitter.sol",
  "compiler": {
    "name": "solc",
    "version": "0.4.19+commit.c4cbbb05.Emscripten.clang"
  },
  "schemaVersion": "2.0.0",
  "updatedAt": "2018-03-31T13:17:08.201Z"
}